:020000040800F2
:1000000038040020B1070008110800081108000892
:10001000110800081108000811080008000000007D
:1000200000000000000000000000000011080008AF
:10003000110800080000000011080008110800085D
:10004000110800081108000811080008110800082C
:10005000110800081108000811080008110800081C
:10006000110800081108000811080008110800080C
:1000700011080008110800081108000811080008FC
:1000800011080008110800081108000811080008EC
:1000900011080008110800081108000811080008DC
:1000A00011080008110800081108000811080008CC
:1000B0001108000811080008510B00081108000879
:1000C00011080008110800081108000811080008AC
:1000D000110800081108000811080008110800089C
:1000E00011080008110800081108000800000000AD
:1000F0000000000000000000000000000000000000
:1001000000000000000000005FF808F180B485B036
:1001100000AF786039600023FB817B681B88FB811E
:100120007B682E4A934213D07B682D4A93420FD0AE
:100130007B68B3F1804F0BD07B682A4A934207D08B
:100140007B68294A934203D07B68284A934208D1AE
:10015000FB8923F07003FB813B685A88FB891343BA
:10016000FB817B68224A93420CD07B68214A9342F0
:1001700008D0FB8923F44073FB813B68DA88FB8954
:100180001343FB817B68FA891A803B689A887B68F5
:100190009A853B681A887B681A857B680F4A934268
:1001A0000FD07B680E4A93420BD07B68124A934271
:1001B00007D07B68114A934203D07B68104A934270
:1001C00004D13B681B7A9AB27B681A867B6801224D
:1001D0009A8200BF1437BD4680BC7047002C014096
:1001E000003401400004004000080040000C0040C2
:1001F0000010004000140040004001400044014055
:100200000048014080B485B000AF786039600023B9
:100210007B810023FB810023BB817B681B8C9BB20D
:1002200023F480739AB27B681A847B681B8CFB81F1
:100230007B689B88BB817B689B8B7B817B8923F060
:1002400070037B817B8923F003037B813B681A88E1
:100250007B8913437B81FB8923F40073FB813B681B
:100260001B891B029AB2FB891343FB813B685B88A5
:100270001B029AB2FB891343FB817B68224A93429B
:1002800003D07B68214A93422BD1FB8923F400637E
:10029000FB813B685B891B029AB2FB891343FB819C
:1002A000FB8923F48063FB813B689B881B029AB225
:1002B000FB891343FB81BB8923F48053BB81BB893A
:1002C00023F40053BB813B689B891B019AB2BB8915
:1002D0001343BB813B68DB891B019AB2BB89134383
:1002E000BB817B68BA899A807B687A899A833B68EC
:1002F000DA887B689A877B68FA891A8400BF14378A
:10030000BD4680BC704700BF002C01400034014056
:1003100080B485B000AF786039600023BB810023D2
:100320007B810023FB817B681B8C9BB223F4805371
:100330009AB27B681A847B681B8C7B817B689B8864
:10034000FB817B689B8BBB81BB8923F4E043BB8132
:10035000BB8923F44073BB813B681B881B029AB2A4
:10036000BB891343BB817B8923F400537B813B68AA
:100370001B891B039AB27B8913437B813B685B8893
:100380001B039AB27B8913437B817B68124A934299
:1003900003D07B68114A93420AD1FB8923F480433E
:1003A000FB813B689B899B019AB2FB891343FB81CC
:1003B0007B68FA899A807B68BA899A833B68DA8875
:1003C0007B68A3F840207B687A891A8400BF1437C1
:1003D000BD4680BC704700BF002C01400034014086
:1003E00080B483B000AF78600B46FB70FB78002BC5
:1003F00008D07B681B889BB243F001039AB27B68EC
:100400001A8007E07B681B889BB223F001039AB235
:100410007B681A8000BF0C37BD4680BC704700BFA8
:1004200080B483B000AF78600B467B8013467B704E
:100430007B78002B08D07B689B899AB27B8813431A
:100440009AB27B689A8109E07B689B899AB27B8823
:10045000DB439BB213409AB27B689A8100BF0C3792
:10046000BD4680BC704700BF80B483B000AF7860E9
:100470000B467B807B88DB439AB27B681A8200BF85
:100480000C37BD4680BC704780B582B000AF0121FB
:10049000112000F043FC1823FB714FF44073BB8024
:1004A0000123BB713B1D1946054800F0B5F9012138
:1004B000044800F081FA00BF0837BD4680BD00BF88
:1004C00000100140000C1A0080B58AB000AF03464E
:1004D0000A46FB801346BB800121022000F03CFC51
:1004E00040F29F53BB8340F2E7333B840023FB83FE
:1004F00000237B8407F11C0319460F48FFF706FE13
:100500006023BB810123FB81FB887B8207F10C0305
:1005100019460948FFF776FEBB887B8207F10C037A
:1005200019460548FFF7F4FE01210348FFF758FF7D
:1005300000BF2837BD4680BD0004004080B584B0B0
:1005400000AF0121042000F007FC42F20F733B8151
:1005500040F2DB53BB8000237B810023FB803B1DEB
:1005600019460348FFF7D2FD00BF1037BD4680BDD6
:100570000008004080B584B000AF00233B8000231A
:100580007B800023FB8000233B813B4619460348C8
:10059000FFF7BEFE00BF1037BD4680BD000800401B
:1005A00080B500AF012210210448FFF739FF012177
:1005B0000248FFF715FF00BF80BD00BF00080040E4
:1005C00080B582B000AF4FF4407000F0ADFF1E2345
:1005D0003B710123FB710F237B710023BB713B1D1A
:1005E000184600F0B3FF00BF0837BD4680BD00BF0E
:1005F00080B586B000AF03460A46FB801346BB8039
:1006000060233B8101237B81FB88FB8107F1080389
:1006100019460948FFF7F6FDBB88FB8107F108037F
:1006200019460548FFF774FE01210348FFF7D8FE7D
:1006300000BF1837BD4680BD0004004080B500AF44
:10064000154A154B1B6843F0010313601249124B06
:100650005A68124B13404B600F4A0F4B1B6823F034
:10066000847323F4803313600B4A0B4B1B6823F411
:1006700080231360084A084B5B6823F4FE03536031
:10068000054B4FF41F029A6000F00CF8044B4FF03A
:1006900000629A6000BF80BD001002400000FFF8B9
:1006A00000ED00E080B500AF00F002F800BF80BDB3
:1006B00080B483B000AF00237B6000233B603A4AE4
:1006C000394B1B6843F480331360374B1B6803F4CA
:1006D00000333B607B6801337B603B68002B03D1B8
:1006E0007B68B3F5A06FF0D12F4B1B6803F4003388
:1006F000002B02D001233B6001E000233B603B68FC
:10070000012B4BD1294A294B1B6843F0100313607E
:10071000264A264B1B6823F003031360234A234B0E
:100720001B6843F0020313601F4A1F4B5B68536052
:100730001D4A1D4B5B6853601B4A1B4B5B6843F4AF
:1007400080635360184A184B5B6823F47C13536032
:10075000154A154B5B6843F4E8135360124A124B79
:100760001B6843F08073136000BF0F4B1B6803F0DE
:100770000073002BF9D00C4A0B4B5B6823F003038A
:100780005360094A084B5B6843F00203536000BFA3
:10079000054B5B6803F00C03082BF9D100BF0C3745
:1007A000BD4680BC704700BF0010024000200240E0
:1007B00080B582B000AF114B7B60114B3B6007E00E
:1007C0003B681A1D3A607A68111D796012681A60D8
:1007D0003B680C4A9342F3D30B480C494FF000029C
:1007E0008842B8BF40F8042BFADBFFF727FF00F080
:1007F00053F900BF0837BD4680BD00BF1016000882
:10080000000000200400002004000020340000202C
:1008100080B400AFFEE700BF80B489B000AF78605D
:1008200039600023FB6100233B610023BB6100238F
:10083000FB6000237B610023BB603B68DB7803F037
:100840000F03FB613B68DB7803F01003002B05D03E
:100850003B689B781A46FB691343FB613B681B8826
:10086000DBB2002B44D07B681B687B610023BB613B
:1008700038E00122BB6902FA03F3FB603B681B8886
:100880001A46FB6813403B613A69FB689A4226D1DD
:10089000BB699B00FB600F22FB6802FA03F3BB609D
:1008A000BB68DB437A6913407B61FA69FB6802FA33
:1008B00003F37A6913437B613B68DB78282B05D10E
:1008C0000122BB699A407B685A6108E03B68DB788B
:1008D000482B04D10122BB699A407B681A61BB692D
:1008E0000133BB61BB69072BC3D97B687A691A6086
:1008F0003B681B88FF2B46D97B685B687B610023C4
:10090000BB613AE0BB690833012202FA03F3FB60E2
:100910003B681B881A46FB6813403B613A69FB68D9
:100920009A4227D1BB699B00FB600F22FB6802FA49
:1009300003F3BB60BB68DB437A6913407B61FA69F0
:10094000FB6802FA03F37A6913437B613B68DB7847
:10095000282B05D1BB69083301229A407B685A6174
:100960003B68DB78482B05D1BB69083301229A40EC
:100970007B681A61BB690133BB61BB69072BC1D9B5
:100980007B687A695A6000BF2437BD4680BC7047D7
:1009900080B483B000AF78607B684FF6FF721A8036
:1009A0007B6802229A707B680422DA7000BF0C37E1
:1009B000BD4680BC704700BF80B487B000AF786090
:1009C0000B46FB7000233B610023FB6000237B612F
:1009D0000023BB607B68002B03DA2E4BDB697B6155
:1009E00002E02C4B5B687B617B681B0C03F00F0300
:1009F000BB607B689BB23B617B6803F44013B3F53B
:100A0000401F0AD17B6923F070637B61214A214B2F
:100A10005B6823F07063536021E07B6803F480130C
:100A2000002B0ED00322BB6802FA03F3FB60FB68C5
:100A3000DB437A6913407B617B6943F070637B61C0
:100A40000DE07B685B0D1B013A6902FA03F3DB439F
:100A50007A6913407B617B6943F070637B61FB784B
:100A6000002B08D07B685B0D1B013A6902FA03F387
:100A70007A6913437B617B68002B03DA054A7B6943
:100A8000D36102E0034A7B69536000BF1C37BD4657
:100A900080BC70470000014080B582B000AF00F01C
:100AA0007DF800F0E1F8FFF7EFFCFFF747FDFFF7F7
:100AB00061FDFFF775FDFFF783FD5A214B20FFF71E
:100AC00003FD01211E4800F027FA01211C4800F017
:100AD000CFF91C4800F0F4FC0346BB800023FB71F7
:100AE000022000F0F9FC0346002BF2D00023FB713A
:100AF00022E0FA79FB79144931F813301846FB7972
:100B00000433114931F813300344F97908310E48A0
:100B100030F811100B44F9790C310B4830F81110F2
:100B20000B44002B00DA03339B101946074B43F8A4
:100B30002210FB790133FB71FB79032BD9D9C8E76C
:100B4000002401400800024014000020040000209E
:100B500090B583B002AF0D4B1B6898B20B4B5B682E
:100B600099B20A4B9B689AB2084BDB689CB2084B5F
:100B70000193084B0093234600F0B4FA1021064875
:100B8000FFF772FC00BF0437BD4690BD0400002093
:100B900002000020000000200008004080B586B060
:100BA00000AF01214FF4047000F0B8F807F114030E
:100BB0001846FFF7EDFE0F23BB820023FB7507F1FC
:100BC000140319462648FFF727FE01237B710023F3
:100BD000FB604FF46023BB6000233B6004233B7445
:100BE00001233B713B4619461E4800F0D3F804230D
:100BF00001220A211B4800F0ABF9042302220B2139
:100C0000184800F0A5F9042303220C21154800F030
:100C10009FF9042304220D21124800F099F90121C3
:100C2000104800F009F901210E4800F021F90D48A3
:100C300000F03AF900BF0B4800F056F90346002BCC
:100C4000F9D1084800F040F900BF064800F04CF91F
:100C50000346002BF9D100BF1837BD4680BD00BF49
:100C6000001001400024014080B58CB000AF19484D
:100C700000F0F2FA0121012000F032F810233B616C
:100C80000023FB600023FB62134BBB604FF48063C7
:100C90003B628023BB6120237B62104B7B604FF45F
:100CA0008073FB6100237B614FF48053BB623B1D6B
:100CB0001946084800F08CFB01220221054800F08B
:100CC000E1FB0121034800F0C1FB00BF3037BD4606
:100CD00080BD00BF08000240140000204C240140E9
:100CE00080B483B000AF78600B46FB70FB78002BBC
:100CF00006D00949084B5A697B6813434B6106E0EB
:100D00000549054B5A697B68DB4313404B6100BFC3
:100D10000C37BD4680BC70470010024080B483B0E1
:100D200000AF78600B46FB70FB78002B06D00949BA
:100D3000084B9A697B6813438B6106E00549054BB4
:100D40009A697B68DB4313408B6100BF0C37BD465B
:100D500080BC70470010024080B483B000AF786060
:100D60000B46FB70FB78002B06D00949084BDA696B
:100D70007B681343CB6106E00549054BDA697B6864
:100D8000DB431340CB6100BF0C37BD4680BC7047CE
:100D90000010024080B485B000AF78603960002355
:100DA000FB600023FB727B685B68FB60FB6823F4DD
:100DB000702323F48073FB603B681A683B681B79DF
:100DC0001B021343FA681343FB607B68FA685A609E
:100DD0007B689B68FB60FA68164B1340FB603B68BE
:100DE000DA683B689B681A433B685B795B00134396
:100DF000FA681343FB607B68FA689A607B68DB6A79
:100E0000FB60FB6823F47003FB603B681B7C013BC9
:100E1000DAB2FB7A1343FB72FB7A1B05FA681343C1
:100E2000FB607B68FA68DA6200BF1437BD4680BC9D
:100E3000704700BFFDF7F1FF80B483B000AF78606A
:100E40000B46FB70FB78002B06D07B689B6843F059
:100E500001027B689A6005E07B689B6823F00102D1
:100E60007B689A6000BF0C37BD4680BC704700BFEE
:100E700080B483B000AF78600B46FB70FB78002B2A
:100E800006D07B689B6843F480727B689A6005E0BB
:100E90007B689B6823F480727B689A6000BF0C3784
:100EA000BD4680BC704700BF80B483B000AF78609F
:100EB0007B689B6843F008027B689A6000BF0C3730
:100EC000BD4680BC704700BF80B483B000AF78607F
:100ED0007B689B6843F004027B689A6000BF0C3714
:100EE000BD4680BC704700BF80B485B000AF78605D
:100EF0000023FB737B689B6803F00403002B02D084
:100F00000123FB7301E00023FB73FB7B18461437BE
:100F1000BD4680BC704700BF80B483B000AF78602E
:100F20000B46FB70FB78002B06D07B689B6843F474
:100F3000A0027B689A6005E07B689B6823F4A002AE
:100F40007B689A6000BF0C37BD4680BC704700BF0D
:100F500080B485B000AF7860084611461A46034653
:100F6000FB700B46BB7013467B700023FB600023B5
:100F7000BB60FB78092B23D97B68DB68FB60FB78BF
:100F8000A3F10A0213465B001344072202FA03F39B
:100F9000BB60BB68DB43FA681340FB607978FB7881
:100FA000A3F10A0213465B00134401FA03F3BB608A
:100FB000FA68BB681343FB607B68FA68DA601EE07E
:100FC0007B681B69FB60FA7813465B0013440722B9
:100FD00002FA03F3BB60BB68DB43FA681340FB60B3
:100FE0007978FA7813465B00134401FA03F3BB6087
:100FF000FA68BB681343FB607B68FA681A61BB78C8
:10100000062B21D87B685B6BFB60BB785A1E1346AE
:101010009B0013441F2202FA03F3BB60BB68DB434F
:10102000FA681340FB60F978BB785A1E13469B00A0
:10103000134401FA03F3BB60FA68BB681343FB6017
:101040007B68FA685A6347E0BB780C2B21D87B6831
:101050001B6BFB60BB78DA1F13469B0013441F22F7
:1010600002FA03F3BB60BB68DB43FA681340FB6022
:10107000F978BB78DA1F13469B00134401FA03F397
:10108000BB60FA68BB681343FB607B68FA681A634D
:1010900022E07B68DB6AFB60BB78A3F10D0213469C
:1010A0009B0013441F2202FA03F3BB60BB68DB43BF
:1010B000FA681340FB60F978BB78A3F10D02134680
:1010C0009B00134401FA03F3BB60FA68BB68134347
:1010D000FB607B68FA68DA6200BF1437BD4680BCEB
:1010E000704700BF90B58BB000AF0446084611466C
:1010F0001A462346FB800346BB800B467B80134683
:101100003B805A23FB606423BB60FA88BB8813448E
:10111000DA0F13445B107B627A883B881344DA0F42
:1011200013445B103B62FA887B881344DA0F134444
:101130005B10FB61BA883B881344DA0F13445B10E1
:10114000BB617A6A3B6AD31A7B61FA69BB69D31ABD
:101150003B61BB685A427B699A4203DC7A69BB688F
:101160009A422ADD7A6A3B6A9A420DDDFB6B1B8844
:1011700005339AB2FB6B1A80FB6B1B88782B14D952
:10118000FB6B78221A8010E07A6A3B6A9A420CDA8A
:10119000FB6B1B88053B9AB2FB6B1A80FB6B1B88B1
:1011A000542B02D8FB6B55221A80BB6B1A88FB6B41
:1011B0001B8819461046FFF71BFAFB685A423B6929
:1011C0009A4203DC3A69FB689A4240DDFA69BB69DE
:1011D0009A4218DDFB6B1B88652B06D8BB6B1B88FE
:1011E000053B9AB2BB6B1A8005E0BB6B1B880533CD
:1011F0009AB2BB6B1A80BB6B1B887D2B1FD9BB6B54
:101200007D221A801BE0FA69BB699A4217DAFB6BF0
:101210001B88652B06D8BB6B1B8805339AB2BB6B4A
:101220001A8005E0BB6B1B88053B9AB2BB6B1A802A
:10123000BB6B1B88182B02D8BB6B19221A80BB6BA7
:101240001A88FB6B1B8819461046FFF7D1F900BFBF
:101250002C37BD4690BD00BF80B483B000AF78602E
:101260007B681A684FF6FE7313407A6813607B68D8
:1012700000221A607B6800225A607B6800229A6014
:101280007B680022DA607B68434A934206D1434A76
:10129000424B5B6843F00F03536077E07B68404A42
:1012A000934206D13D4A3D4B5B6843F0F0035360E7
:1012B0006CE07B683B4A934206D1384A374B5B6807
:1012C00043F47063536061E07B68374A934206D110
:1012D000324A324B5B6843F47043536056E07B689C
:1012E000324A934206D12D4A2C4B5B6843F470235B
:1012F00053604BE07B682E4A934206D1274A274B26
:101300005B6843F47003536040E07B68294A934272
:1013100006D1224A214B5B6843F07063536035E08D
:101320007B68254A934206D1244A244B5B6843F0EC
:101330000F0353602AE07B68214A934206D11F4A7B
:101340001E4B5B6843F0F00353601FE07B681D4A4F
:10135000934206D1194A194B5B6843F4706353609A
:1013600014E07B68184A934206D1144A134B5B6819
:1013700043F47043536009E07B68144A934205D1FB
:101380000E4A0E4B5B6843F47023536000BF0C376A
:10139000BD4680BC704700BF08000240000002400C
:1013A0001C0002403000024044000240580002404D
:1013B0006C00024080000240080402400004024029
:1013C0001C0402403004024044040240580402401D
:1013D00080B485B000AF786039600023FB607B6823
:1013E0001B68FB60FB6823F4FF4323F07003FB6082
:1013F0003B689A683B681B6A1A433B681B691A433F
:101400003B685B691A433B689B691A433B68DB692D
:101410001A433B685B6A1A433B689B6A1343FA684A
:101420001343FB607B68FA681A603B68DA687B6884
:101430005A603B681A687B689A603B685A687B68A8
:10144000DA6000BF1437BD4680BC704780B483B0FB
:1014500000AF78600B46FB70FB78002B06D07B68F2
:101460001B6843F001027B681A6006E07B681A681B
:101470004FF6FE7313407A68136000BF0C37BD4609
:1014800080BC704780B485B000AFF860B960134687
:10149000FB71FB79002B06D0FB681A68BB681A4306
:1014A000FB681A6006E0FB681A68BB68DB431A40F9
:1014B000FB681A6000BF1437BD4680BC704700BF90
:1014C00080B483B000AF78607B685B689BB21846DD
:1014D0000C37BD4680BC704780B485B000AF7860E3
:1014E0000023FB730023BB607B6803F08053002B59
:1014F00003D00B4B1B68BB6002E00A4B1B68BB6050
:10150000BA687B681340002B02D00123FB7301E013
:101510000023FB73FB7B18461437BD4680BC704725
:10152000000402400000024080B483B000AF786045
:10153000054A7B6843F0BF6343F40033D36000BFC8
:101540000C37BD4680BC704700ED00E080B487B02A
:1015500000AF786000237B6100233B610F23FB60B9
:101560007B68DB78002B3AD0274BDB68DB4303F446
:10157000E0631B0A7B617B69C3F104033B61FA688A
:101580007B6922FA03F3FB607B685B781A463B6950
:1015900002FA03F37B617B689B781A46FB68134071
:1015A0007A6913437B617B691B017B61174A7B6806
:1015B0001B787969C9B213440A4683F80023134A99
:1015C0007B681B785B09DBB218467B681B7803F0ED
:1015D0001F03012101FA03F342F820300FE00B4909
:1015E0007B681B785B09DBB218467B681B7803F0CD
:1015F0001F0301229A4000F1200341F8232000BF7D
:101600001C37BD4680BC704700ED00E000E100E003
:041610004B005A0031
:0400000508000000EF
:00000001FF
